{
  "contractName": "ERC165",
  "abi": [
    {
      "inputs": [],
      "stateMutability": "nonpayable",
      "type": "constructor"
    },
    {
      "inputs": [
        {
          "internalType": "bytes4",
          "name": "interfaceID",
          "type": "bytes4"
        }
      ],
      "name": "supportsInterface",
      "outputs": [
        {
          "internalType": "bool",
          "name": "",
          "type": "bool"
        }
      ],
      "stateMutability": "view",
      "type": "function"
    }
  ],
  "bytecode": "0x608060405234801561001057600080fd5b506100407f01ffc9a7a5cef8baa21ed3c5c0d7e23accb804b619e9333b597f47a0d84076e261004560201b60201c565b6100b1565b6001600080837bffffffffffffffffffffffffffffffffffffffffffffffffffffffff19167bffffffffffffffffffffffffffffffffffffffffffffffffffffffff1916815260200190815260200160002060006101000a81548160ff02191690831515021790555050565b6101bd806100c06000396000f3fe608060405234801561001057600080fd5b506004361061002b5760003560e01c806301ffc9a714610030575b600080fd5b61004a60048036038101906100459190610124565b610060565b604051610057919061016c565b60405180910390f35b6000806000837bffffffffffffffffffffffffffffffffffffffffffffffffffffffff19167bffffffffffffffffffffffffffffffffffffffffffffffffffffffff1916815260200190815260200160002060009054906101000a900460ff169050919050565b600080fd5b60007fffffffff0000000000000000000000000000000000000000000000000000000082169050919050565b610101816100cc565b811461010c57600080fd5b50565b60008135905061011e816100f8565b92915050565b60006020828403121561013a576101396100c7565b5b60006101488482850161010f565b91505092915050565b60008115159050919050565b61016681610151565b82525050565b6000602082019050610181600083018461015d565b9291505056fea2646970667358221220fa11578a3678094c8617acbdd02070e71a33db1646a48310ae581d9aa3c9c43564736f6c634300080a0033",
  "immutableReferences": {},
  "source": "// SPDX-License-Identifier: MIT\r\npragma solidity ^0.8.0;\r\nimport \"./interfaces/IERC165.sol\";\r\n\r\ncontract ERC165 is IERC165 {\r\n  mapping(bytes4 => bool) _supportedInterfaces;\r\n\r\n  constructor() {\r\n      _registerInterface(bytes4(keccak256('supportsInterface(bytes4)')));\r\n  }\r\n\r\n  function supportsInterface(bytes4 interfaceID) external view returns (bool) {\r\n    return _supportedInterfaces[interfaceID];\r\n  }\r\n\r\n  function _registerInterface(bytes4 interfaceID) internal {\r\n    _supportedInterfaces[interfaceID] = true;\r\n  }\r\n}\r\n",
  "sourcePath": "C:\\Users\\Ahmad\\projects\\tutorials-project\\blockchain\\nft-basics\\nft-marketplace-starter-kit\\src\\contracts\\ERC165.sol",
  "compiler": {
    "name": "solc",
    "version": "0.8.10+commit.fc410830.Emscripten.clang"
  },
  "schemaVersion": "3.4.3",
  "updatedAt": "2021-12-15T05:28:00.975Z",
  "devdoc": {
    "kind": "dev",
    "methods": {
      "supportsInterface(bytes4)": {
        "details": "Interface identification is specified in ERC-165. This function  uses less than 30,000 gas.",
        "params": {
          "interfaceID": "The interface identifier, as specified in ERC-165"
        },
        "returns": {
          "_0": "`true` if the contract implements `interfaceID` and  `interfaceID` is not 0xffffffff, `false` otherwise"
        }
      }
    },
    "version": 1
  },
  "userdoc": {
    "kind": "user",
    "methods": {
      "supportsInterface(bytes4)": {
        "notice": "Query if a contract implements an interface"
      }
    },
    "version": 1
  }
}