{
  "contractName": "ERC721Metadata",
  "abi": [
    {
      "inputs": [
        {
          "internalType": "string",
          "name": "named",
          "type": "string"
        },
        {
          "internalType": "string",
          "name": "symbolified",
          "type": "string"
        }
      ],
      "stateMutability": "nonpayable",
      "type": "constructor"
    },
    {
      "inputs": [
        {
          "internalType": "bytes4",
          "name": "interfaceID",
          "type": "bytes4"
        }
      ],
      "name": "supportsInterface",
      "outputs": [
        {
          "internalType": "bool",
          "name": "",
          "type": "bool"
        }
      ],
      "stateMutability": "view",
      "type": "function"
    },
    {
      "inputs": [],
      "name": "name",
      "outputs": [
        {
          "internalType": "string",
          "name": "",
          "type": "string"
        }
      ],
      "stateMutability": "view",
      "type": "function"
    },
    {
      "inputs": [],
      "name": "symbol",
      "outputs": [
        {
          "internalType": "string",
          "name": "",
          "type": "string"
        }
      ],
      "stateMutability": "view",
      "type": "function"
    }
  ],
  "bytecode": "0x60806040523480156200001157600080fd5b50604051620008f7380380620008f78339818101604052810190620000379190620003ae565b620000687f01ffc9a7a5cef8baa21ed3c5c0d7e23accb804b619e9333b597f47a0d84076e2620000f560201b60201c565b81600190805190602001906200008092919062000161565b5080600290805190602001906200009992919062000161565b50620000ed7f13b182f4c0e5b2efbac0efe6cf6d756c8b89f4b79c5707a043ed9ea740574ee97f7feaf19471f34a12a7eaf32d5f3090aa2260ea8624dc8a138e74e0bf0f62307618620000f560201b60201c565b505062000498565b6001600080837bffffffffffffffffffffffffffffffffffffffffffffffffffffffff19167bffffffffffffffffffffffffffffffffffffffffffffffffffffffff1916815260200190815260200160002060006101000a81548160ff02191690831515021790555050565b8280546200016f9062000462565b90600052602060002090601f016020900481019282620001935760008555620001df565b82601f10620001ae57805160ff1916838001178555620001df565b82800160010185558215620001df579182015b82811115620001de578251825591602001919060010190620001c1565b5b509050620001ee9190620001f2565b5090565b5b808211156200020d576000816000905550600101620001f3565b5090565b6000604051905090565b600080fd5b600080fd5b600080fd5b600080fd5b6000601f19601f8301169050919050565b7f4e487b7100000000000000000000000000000000000000000000000000000000600052604160045260246000fd5b6200027a826200022f565b810181811067ffffffffffffffff821117156200029c576200029b62000240565b5b80604052505050565b6000620002b162000211565b9050620002bf82826200026f565b919050565b600067ffffffffffffffff821115620002e257620002e162000240565b5b620002ed826200022f565b9050602081019050919050565b60005b838110156200031a578082015181840152602081019050620002fd565b838111156200032a576000848401525b50505050565b6000620003476200034184620002c4565b620002a5565b9050828152602081018484840111156200036657620003656200022a565b5b62000373848285620002fa565b509392505050565b600082601f83011262000393576200039262000225565b5b8151620003a584826020860162000330565b91505092915050565b60008060408385031215620003c857620003c76200021b565b5b600083015167ffffffffffffffff811115620003e957620003e862000220565b5b620003f7858286016200037b565b925050602083015167ffffffffffffffff8111156200041b576200041a62000220565b5b62000429858286016200037b565b9150509250929050565b7f4e487b7100000000000000000000000000000000000000000000000000000000600052602260045260246000fd5b600060028204905060018216806200047b57607f821691505b6020821081141562000492576200049162000433565b5b50919050565b61044f80620004a86000396000f3fe608060405234801561001057600080fd5b50600436106100415760003560e01c806301ffc9a71461004657806306fdde031461007657806395d89b4114610094575b600080fd5b610060600480360381019061005b919061029a565b6100b2565b60405161006d91906102e2565b60405180910390f35b61007e610119565b60405161008b9190610396565b60405180910390f35b61009c6101ab565b6040516100a99190610396565b60405180910390f35b6000806000837bffffffffffffffffffffffffffffffffffffffffffffffffffffffff19167bffffffffffffffffffffffffffffffffffffffffffffffffffffffff1916815260200190815260200160002060009054906101000a900460ff169050919050565b606060018054610128906103e7565b80601f0160208091040260200160405190810160405280929190818152602001828054610154906103e7565b80156101a15780601f10610176576101008083540402835291602001916101a1565b820191906000526020600020905b81548152906001019060200180831161018457829003601f168201915b5050505050905090565b6060600280546101ba906103e7565b80601f01602080910402602001604051908101604052809291908181526020018280546101e6906103e7565b80156102335780601f1061020857610100808354040283529160200191610233565b820191906000526020600020905b81548152906001019060200180831161021657829003601f168201915b5050505050905090565b600080fd5b60007fffffffff0000000000000000000000000000000000000000000000000000000082169050919050565b61027781610242565b811461028257600080fd5b50565b6000813590506102948161026e565b92915050565b6000602082840312156102b0576102af61023d565b5b60006102be84828501610285565b91505092915050565b60008115159050919050565b6102dc816102c7565b82525050565b60006020820190506102f760008301846102d3565b92915050565b600081519050919050565b600082825260208201905092915050565b60005b8381101561033757808201518184015260208101905061031c565b83811115610346576000848401525b50505050565b6000601f19601f8301169050919050565b6000610368826102fd565b6103728185610308565b9350610382818560208601610319565b61038b8161034c565b840191505092915050565b600060208201905081810360008301526103b0818461035d565b905092915050565b7f4e487b7100000000000000000000000000000000000000000000000000000000600052602260045260246000fd5b600060028204905060018216806103ff57607f821691505b60208210811415610413576104126103b8565b5b5091905056fea2646970667358221220d5a5c837517c3a6a56ba755218914980fbf708c69c4a1d7cbfe0c244a92880a264736f6c634300080b0033",
  "immutableReferences": {},
  "source": "// SPDX-License-Identifier: MIT\r\npragma solidity ^0.8.0;\r\n\r\nimport \"./interfaces/IERC721Metadata.sol\";\r\nimport \"./ERC165.sol\";\r\n\r\ncontract ERC721Metadata is IERC721Metadata, ERC165 {\r\n  string private _name;\r\n  string private _symbol;\r\n\r\n  constructor(string memory named, string memory symbolified) {\r\n    _name = named;\r\n    _symbol = symbolified;\r\n\r\n    _registerInterface(\r\n      bytes4(keccak256(\"name(bytes4)\") ^ keccak256(\"symbol(bytes4)\"))\r\n    );\r\n  }\r\n\r\n  function name() external view returns (string memory) {\r\n    return _name;\r\n  }\r\n\r\n  function symbol() external view returns (string memory) {\r\n    return _symbol;\r\n  }\r\n}\r\n",
  "sourcePath": "C:\\Users\\Ahmad\\projects\\tutorials-project\\blockchain\\nft-basics\\nft-marketplace-starter-kit\\src\\contracts\\ERC721Metadata.sol",
  "compiler": {
    "name": "solc",
    "version": "0.8.11+commit.d7f03943.Emscripten.clang"
  },
  "schemaVersion": "3.4.3",
  "updatedAt": "2021-12-23T19:10:34.570Z",
  "devdoc": {
    "kind": "dev",
    "methods": {
      "supportsInterface(bytes4)": {
        "details": "Interface identification is specified in ERC-165. This function  uses less than 30,000 gas.",
        "params": {
          "interfaceID": "The interface identifier, as specified in ERC-165"
        },
        "returns": {
          "_0": "`true` if the contract implements `interfaceID` and  `interfaceID` is not 0xffffffff, `false` otherwise"
        }
      }
    },
    "version": 1
  },
  "userdoc": {
    "kind": "user",
    "methods": {
      "name()": {
        "notice": "A descriptive name for a collection of NFTs in this contract"
      },
      "supportsInterface(bytes4)": {
        "notice": "Query if a contract implements an interface"
      },
      "symbol()": {
        "notice": "An abbreviated name for NFTs in this contract"
      }
    },
    "version": 1
  }
}